:1000000006308A00BC2E0000C437A0206D1D000001
:10001000C2205410CD205900D4205410CD205900B6
:100020003930840083130008031923280630F800B0
:10003000F701F70B1928F80B18287B30F700F70B9E
:100040001F28800B16280800401828280812292885
:100050000816831608128312C01830288812312817
:1000600088168316881283124019382808133928F5
:100070000817831608138312C019402888134128D3
:100080008817831688130000831207142010200895
:10009000831687000330F700F70B4C2883120710F4
:1000A000201020088316870083120800C1018316E0
:1000B000081600308312081A0130C104831688160E
:1000C00000308312881A0130F7000310F70D77080B
:1000D000C1048316081700308312081B0130F70093
:1000E000F70DF70DFC30F7057708C1048316881764
:1000F00000308312881B0130F700F70DF70DF70D64
:10010000F830F7057708C1044108F800080020100E
:100110002008831687008312A0102008831687000A
:100120008312201120088316870083128710A010E5
:100130002008831687000816881608178817831268
:10014000071520112008831687000000831207146A
:10015000201020088316870000008312562078089C
:10016000C0000710201020088316870000008312AB
:1001700007142010200883168700BE28BF2800001F
:10018000831256207808BF0007102010200883161D
:10019000870008128812081388138312400EF70094
:1001A000F030F70577083F04F8007808BF00BF1F5C
:1001B000DB2883169B28BD08031DE0288710E12853
:1001C0008714A010200883168700000083120711EF
:1001D00020112008831687000000831207102010CA
:1001E00020088316870083123E0EBF000F30BF0524
:1001F0003F08C00024203E080F39BF00C000242063
:1002000008002830AC000C30AD000130AE000630E4
:10021000AF00071020102008831687008312871074
:10022000A0102008831687008312071120112008D0
:10023000831687000812881208138813831220106F
:100240002008831687008312A010200883168700D9
:10025000831220112008831687000F308312B90003
:1002600010200130AB002B08033C031C3F29033056
:10027000C00024200530B9001020AB0A3329023019
:10028000C00024200530B9001020AB012B08033C2E
:10029000031C56292C302B07840083130008B00060
:1002A000BD013008BE008720AB0A46298A110A1218
:1002B000D02E83161F1383121F179F1783169F17A5
:1002C00083121F1483161F109F101F119F110030DF
:1002D000F80083121F08C73978049F008A110A1298
:1002E000D12E3A0B742977294030BB007829BB0105
:1002F00001303902BB073B088038BC00BD013C0817
:10030000BE00872008003808073A031991290B3AE4
:1003100003199629063A03199E29023A0319A429BA
:10032000A9290130B900BA007121AE29BD010130FF
:10033000BE0087200230B9001020AE290130B9007C
:100340000230BA007121AE29BD011030BE008720F5
:10035000AE290130BD003808BE00872008000B0818
:10036000AB008B13831603178C170C1400000000CE
:1003700083120313AB1B8B1703170C087F39031968
:10038000032A0313AB0003170D080313AC00031774
:100390000F080313AD002B08B80083212C080317A6
:1003A0008D0003132D0803178F0003130B08AE00F5
:1003B0008B13831603178C170C1400000000831294
:1003C0000313AE1B8B1703170C0D0E0D7F3903198A
:1003D000032A0313AB0003170D080313AC00031724
:1003E0000F080313AD002B08B80083212C08031756
:1003F0008D0003132D0803178F008D0A03198F0A30
:100400000313AF290317031308008E30F7002C08DD
:10041000F8002B08F900FA01F808031D192A7908D9
:10042000F800F9010830F702F808031D192AF7014E
:10043000212A0310F81B202AF90DF80DF703192AB9
:10044000F813080080308318C806CD01CE01440897
:10045000CC004808CC0643080319122BCB00F70048
:10046000470803191B2BCB020319B72A031C752A53
:100470004808D100D1174908D0004A08CF00CE0162
:100480000310D10CD00CCF0CCE0CCB0B3F2ACC1FC1
:100490004C2A4D142F2B4D104B104D164630840016
:1004A0008313442B4D12CC1B5F2A4B1C6A2AD10CA0
:1004B000D00CCF0CCE0CF70A03192A2B6A2AD11BB9
:1004C0006D2A0310CE0DCF0DD00DD10DF7030319FA
:1004D0002A2B5F2A4D17D72A4D134408CC00CC1F76
:1004E000732AD117232BD113232B4708CB00F700F6
:1004F0004308CB024408D100D1174508D000460874
:10050000CF00CE010310D10CD00CCF0CCE0CCB0BF6
:10051000812ACC1F8E2ACD142F2BCD104B10CD1637
:100520004A3084008313442BCD12CC1BA12A4B1CD0
:10053000AC2AD10CD00CCF0CCE0CF70A03192A2B05
:10054000AC2AD11BAF2A0310CE0DCF0DD00DD10D8B
:10055000F70303192A2BA12ACD17D72ACD13480850
:10056000CC00CC1FB52AD117232BD113232B48083D
:10057000D100D1174908D0004A08CF00CC1FC42AA7
:10058000D1134D152F2B4D11CE014B104630840049
:100590008313442BCC1BED2A4408CC004B1CD72AD8
:1005A000D10CD00CCF0CCE0CF70A03192A2BCE1F7E
:1005B000E82ACF0A031DE82AD00A031DE82AD10A37
:1005C000031DE82AD10CD00CCF0CF70A03192A2BF3
:1005D0004D1B6C2ACD1BAE2A0C2B8030D106D11FAF
:1005E000F52A2F2B4808CC00022B4408CC00D10858
:1005F000031D022BD008031D022BCF08031D022B65
:10060000F701232BD11B0C2B0310CE0DCF0DD00DDA
:10061000D10DF70B022B2A2BCC1F102BD117232B1C
:10062000D113232B4708F7004808D1004908D00010
:100630004A08CF00232B4308F7004408D10045089F
:10064000D0004608CF005108F8005008F9004F08C4
:10065000FA00622BF701F801F901FA01622BCE01D1
:10066000CF09D009D109CE09CE0A031D3D2BCF0AEF
:10067000031D3D2BD00A0319D10A4D184B2ACD1862
:100680008D2A4D19C32AF22A0008CF07031C4E2BCE
:10069000D00A031D4E2BD10A03194B148403000802
:1006A000D007031C562BD10A03194B1484030008EE
:1006B000801F803AD10703184B144D1A522ACD1AC5
:1006C000942ACA2A080043080319D32BCB004708F1
:1006D0000319D32BCB070318742B7F30CB02031CD9
:1006E000D32B0319D32B782B8130CB070318D32BB3
:1006F0004B08F700F801F901FA014408CF00CF17C1
:100700004508CE004608CD001830CB00CC014D1C6A
:10071000A12B4A08FA07031C932BF90A031D932BFC
:10072000F80A0319CC174908F907031C9A2BF80A91
:100730000319CC174808C500C5174508F807031862
:10074000CC17CC0DF80CF90CFA0CCF0CCE0CCD0C50
:100750000310CB0B862B0130F7070318D32BF81BA4
:10076000B82BCF0DFA0DF90DF80DF7030319D32BA4
:10077000CF1FC92BFA0A031DC92BF90A031DC92B68
:10078000F80A031DC92BF80CF90CFA0CF70A031927
:10079000D32B4408CC004808CC06CC1FD12BF8172B
:1007A000D72BF813D72BF701F801F901FA0108004C
:1007B00083142E08C6002D08C5002C08C4002B0881
:1007C000C3003208CA003108C9003008C8002F0829
:1007D000C70022227A08C2007908C1007808C00048
:1007E0007708BF0083143E08C6003D08C5003C08DA
:1007F000C4003B08C3003A08CA003908C9003808D9
:10080000C8003708C70022224208C6004108C500B8
:100810004008C4003F08C3007A08CA007908C9002C
:100820007808C8007708C70063237A08C2007908EF
:10083000C1007808C0007708BF0083143608C600DE
:100840003508C5003408C4003308C3003208CA00A4
:100850003108C9003008C8002F08C700222242080A
:10086000C6004108C5004008C4003F08C3007A081C
:10087000CA007908C9007808C8007708C70043088B
:100880000319042DCF0047080319042DCF02031CC0
:100890004E2C7F30CF070318042D542C8130CF020B
:1008A000031C042D0319042D4F08F700F801F9016A
:1008B000FA01CE014408CD00CD174508CC0046080A
:1008C000CB001930CF004A08CB020318772C013037
:1008D000CC020318772CCD020318772CCE02031814
:1008E000772CCE0ACD0ACC0A4A08CB07A92C490896
:1008F000CC020318922C0130CD020318922CCE02A8
:100900000318922CCE0ACD0A4908CC074A08CB0717
:10091000031CA92CCC0A031DA92CCD0A031DA92C4C
:10092000CE0AA92C48088038CD020318A82C013023
:10093000CE020318A82CCE0A48088038CD074908F3
:10094000CC07031C862CCD0A031D862CCE0A862CD0
:100950007A14CF0BAC2CB72C0310CB0DCC0DCD0DD6
:10096000CE0D0310FA0DF90DF80DD00D632C501CAF
:10097000BF2C0310F80CF90CFA0CD00CC22CF703A6
:100980000319042DD01BEB2C0310CB0DCC0DCD0D7A
:10099000CE0D4A08CB020318D72C0130CC02031825
:1009A000D72CCD020318D72CCE02031CFA2C4908F1
:1009B000CC020318E22C0130CD020318E22CCE0247
:1009C000031CFA2C48088038CD020318EB2C0130A8
:1009D000CE02031CFA2CFA0A031DFA2CF90A031D95
:1009E000FA2CF80A031DFA2CF70A0319042DF80C47
:1009F000F90CFA0C4408CF004808CF06CF1F022D8F
:100A0000F817082DF813082DF701F801F901FA017C
:100A10007A08C2007908C1007808C0007708BF00D2
:100A200083104208C6004108C5004008C4003F08C2
:100A3000C3003A08CA003908C9003808C800370896
:100A4000C70022227A08C2007908C1007808C000D5
:100A50007708BF008E30F7003F08F7024008F90022
:100A60004108F800F917F7080319412D0310F90898
:100A7000031D3D2DF8080319412DF90CF80CF70B57
:100A8000362DC01F482DF809F909F80A0319F90A8B
:100A900079088A110A12432F8318512D403084009F
:100AA0008313F701F801F901FA01C001C101C20184
:100AB000C3013F083E043D043C0403198F2D203040
:100AC000C4000310B80DB90DBA0DBB0DC00DC10D9A
:100AD000C20DC30D3F084302031D782D3E0842029C
:100AE000031D782D3D084102031D782D3C0840026E
:100AF000031C892D3C08C0023D08031C3D0FC102A8
:100B00003E08031C3E0FC2023F08031C3F0FC302F6
:100B10000314F70DF80DF90DFA0DC40B612D400803
:100B20008000840A41088000840A42088000840A08
:100B30004308800008000408B0002F08B200031921
:100B4000BA2D2E08C6002D08C5002C08C4002B089D
:100B5000C300CA01C9012030C8008230C700632326
:100B60007A08AE007908AD007808AC007708AB00D1
:100B7000B20BA12D2E08BB002D08BA002C08B9001D
:100B80002B08B8003808B63CB800FA013908BC0098
:100B9000B9170310B90CBA0CBB0CFA0CF90CF80C11
:100BA000F70CB80BC92DBC1FE02DF709F809F9099E
:100BB000FA09F70A0319F80A0319F90A0319FA0AD4
:100BC0007A08AE007908AD007808AC007708AB0071
:100BD000AE1FF72DB003B016AB09AC09AD09AE09D5
:100BE000AB0A0319AC0A0319AD0A0319AE0A3B306C
:100BF000B7009A30B600CA30B500B4010A30B2006E
:100C00002F080319B00A83142B30840083132E0895
:100C1000BB002D08BA002C08B9002B08B800370813
:100C2000BF003608BE003508BD003408BC004C25A6
:100C30007808F708031D2F2E2F0A320203192F2ED2
:100C400030080319312E0F3932020319292E0318E7
:100C5000612EB01B612E301B312E20305D2E2030D6
:100C6000B005B01E3F2EB0122F08031DB003770849
:100C7000B0002D30B80083213008F700B0012F08F4
:100C80003202031D4D2E7708B0002E30B8008321AC
:100C90003008F7002030B00500303030B01E5D2E37
:100CA000B0122F08031DB0037708B0002D30B80034
:100CB00083213008F700B0013030F7077708B8001B
:100CC000832183103708BB003608BA003508B90005
:100CD0003408B800BF01BE01BD010A30BC004C257C
:100CE0007A08B7007908B6007808B5007708B4002C
:100CF000B20B032E8A110A125D2F2C08B3003008A4
:100D0000B306B31F882E03110310AC1B0314BB2EB4
:100D10002C08B3002F08B4002B08B4020319962E38
:100D2000B31FBB2E0308013A8300BB2E3008B4006A
:100D30002C08B4020319A22EB31FBB2E0308013ADC
:100D40008300BB2E3108B4002D08B4020319AE2E67
:100D5000B31FBB2E0308013A8300BB2E3208B40038
:100D60002E08B4020319BA2EB31FBB2E0308013A92
:100D70008300BB2E0310080003081F398300FF30D7
:100D8000A000AA01A90183161F149F141F159F110B
:100D900007309C008313C8308312B900102001294A
:100DA00059290130B900BA007121043003178D00B0
:100DB00000308F000313AF210D30B9000130BA00AD
:100DC00071212530B8008321C830B9001020861465
:100DD0008316861064308312B900102086108316A3
:100DE000861064308312B900102083160614831213
:100DF000061CFF2E061583160611022F83120611FC
:100E0000831606111030F700F70B042F0000831231
:100E10001F151F19092F1E08F90083161E08F80058
:100E20007908FA001E088312AB007908AC0005228D
:100E30007A08A4007908A3007808A2007708A10026
:100E40000830B9000130BA0071212408AE0023082F
:100E5000AD002208AC002108AB00B201C030B100E7
:100E60007F30B0008830AF00B601B501B401B301E6
:100E7000BA01B901B801B701BE01BD014830BC00DB
:100E80008530BB00D82B7908AC007808AB00052270
:100E90007A08A8007908A7007808A6007708A500B6
:100EA000C93084002808AE002708AD002608AC0031
:100EB0002508AB000130AF009B2D2808AE002708A5
:100EC000AD002608AC002508AB00B201B10120300E
:100ED000B0008430AF007D26031C812F0130B900A3
:100EE0000230BA007121083003178D0000308F00E6
:100EF0000313AF218717A013200883168700A52F9F
:100F00008312AE01AD015C30AC008430AB00280828
:100F1000B2002708B1002608B0002508AF007D26E2
:100F2000031CA42F8713A013200883168700013009
:100F30008312B9000230BA0071210C3003178D0002
:100F400000308F000313AF2183168312E72E630056
:02400E00723FFF
:00000001FF
;PIC16F877A
;CRC=E6F7  CREATED="09-Jan-23 13:23"
